:020000020000FC
:02000000B8C086
:1000AC000000000000000000000000000000000044
:1000BC000000000000000000000000000000000034
:1000CC000895000000000000000000000000000087
:1000DC000000000000000000000000000000000014
:1000EC0000008A95803069F70895382F8AEFE9DF90
:1000FC008AEFE7DF8AEFE5DF8AEFE3DF3A9530300E
:10010C00A9F7089581BB5F9ACBDF5F9808955E983D
:10011C00F9DF8295F7DF8DE2D4DF08955E9AF2DF86
:10012C008295F0DF8DE2CDDF089584E1DEDF5E980D
:10013C0080E3E8DF8AE0D9DF80E3E4DF8AE0D5DF23
:10014C0080E3E0DF8AE0D1DF80E2DCDF8DE2B9DF43
:10015C0088E2DDDF8FE0DBDF81E0D9DF82E0C5DF25
:10016C0086E0D5DF08950FEF0DBF0AE00EBF0E94A9
:10017C00C2000E949B001CC000E00DB90EB90FEF2D
:10018C0007B900BB04B90AB9089520E0322F330F28
:10019C00330F330F330F35B93F938AE0A6DF3F910E
:1001AC00669904C023952C3089F72FE0822F08958F
:1001BC008BE4B4DF85E4B2DF89E5B0DF8AE3AEDF40
:1001CC0080ECA5DF0E94CB009817E1F3982F8F30BD
:1001DC00C9F38A301CF4805DA1DFF4CF895C0C94E8
:0A01EC00F200805D9BDFEECFFFCF35
:00000001FF
